:09000000021DE0022B74020FF353
:10000B00022C871226088F27852726EF1229052217
:03001B000221D5EA
:03002300022BBDF0
:10002B000222D59003E4E020E00DE04401F0C2FF92
:0B003B001224A7E0547FF0220222569E
:03004B00022599F2
:0F0053000229E2EE30E707C3E49FFFE49EFE229E
:10006300022C3D020438E86480F8E933E833601178
:100073000460F0ED33EC337009E8FCE9FDEAFEEBD4
:10008300FF220460DED3EB9FEA9EE99DE8C2E78C82
:10009300F0C2F795F0400CE8CCF8E9CDF9EACEFAD6
:1000A300EBCFFB12040385D0F05804700320D5B3C3
:1000B300E80470075002B2D502044292D5EC046002
:1000C300F7E4CCC0E0C398F8603B94186008400D97
:1000D300D0E0FB02041AE4FBFAC9FC8028E830E410
:1000E30006E4C9FBE4CAFCE830E305E4C9CACBFC77
:1000F300E854076010F8C3E913F9EA13FAEB13FBAA
:10010300EC13FCD8F130F52FC3E49CFCEF9BFFEE1E
:100113009AFEED99FDD0E0FBEF4E4D4C701222DBC1
:100123000302043FEC2CFCEF33FFEE33FEED33FD13
:10013300ED30E7EB02041AEF2BFFEE3AFEED39FD4B
:10014300D0E0FB50130BBB0003020442ED13FDEEA2
:1001530013FEEF13FFEC13FC02041AEC4D6011E8DD
:10016300497017ED33EC3304600DE4FCFFFEFD2210
:10017300E933E8330470F8020438120403580460C6
:1001830009E4CC2481500628500902044228400384
:1001930002043FC0E0EB4A7044B98006D0E0FB02A2
:1001A300042EEF4E701CBD8008EBFFEAFEE9FD80D4
:1001B300EBE98DF0A4FEE5F0020247E9CDF9EAFE92
:1001C300EBFFEF89F0A4FCE5F0CE89F0A42EFFE469
:1001D30035F0CD89F0A42DFEE435F08067EF4E7045
:1001E30005BD80D780C3EF8BF0A4ACF0EE8BF0A4F9
:1001F3002CFCE435F0F8EF8AF0A42CE5F038FCE4AD
:1002030033CB8DF0A42CFCE5F03BF8EE8AF0A42C64
:10021300FCE5F038F8E433CF89F0A42CFCE5F038A2
:10022300CF3400CE89F0A42FFFE5F03EFEE433C9BE
:100233008DF0A42EFEE5F039CD8AF0A42FFFE5F072
:100243003EFEE43DFD33D0E0FB50070BBB000F0245
:100253000442EC2CFCEF33FFEE33FEED33FD0204DE
:100263001A020442EC5D046005E8590470030204B9
:1002730038120403580460F6EC4860F2EC7004FD95
:10028300FEFF22C860DB2481C85009C39860025076
:100293000602043F9850CAF582E9294B4A7005AB20
:1002A3008202042E75F0007C1A7880C3EF9BEE9ACD
:1002B300ED99400DC3EF9BFFEE9AFEED99FDE842E9
:1002C300F0DC23ACF0D0E0FFD0E0FED0E0FDAB8269
:1002D30020E7101BEB60BAEC2CFCEF33FFEE33FE90
:1002E300ED33FD02041AE803F830E705C0F075F0BA
:1002F30000EF2FFFEE33FEED33FD40B830E7C28051
:10030300AA74F8CC6480CCC86480C8F58204604FBA
:10031300C3EB9FF5F0EA9E42F0E99D42F0E89C456D
:10032300F0603C501DE5825FFFE582D313CB5BCBCE
:10033300F42B5582FB50280ABA002409B90020087F
:10034300801DE5825BFBE582D313CF5FCFF4C3133C
:100353002F5582FF50090EBE00050DBD00010CC3D1
:10036300EB9FF5F0EA9E42F0E99D42F0E89C45F0F0
:100373006007CC4820E701B3EC22ED33EC33600A8D
:10038300047003BD8004ECB2E7FC2275F020800EFC
:1003930075F010800575F0087D007E007F003392B4
:1003A300D530D5031206A3EC334010EF33FFEE3301
:1003B300FEED33FDEC33FCD5F0ED22E5F0247EA217
:1003C300D513CC92E7CDCEFF22EDD2E7CD33EC337C
:1003D30092D524814006E4FFFEFDFC22FCE4CFCE4F
:1003E300CDCC24E0501174FF80EDC3CC13CCCD13DE
:1003F300CDCE13CECF13CF0470F030D5DE0206A3DB
:10040300E9D2E7C933E833F892D5EDD2E7CD33EC3F
:1004130033FC5002B2D522EC30E7100FBF000C0EB4
:10042300BE00080DBD00040BEB6014A2D5EB13FC5A
:10043300ED92E7FD2274FFFCFDFEFF22E480F8A2AB
:10044300D574FF13FC7D80E480EFE709F608DFFA3B
:100453008046E709F208DFFA803E88828C83E70949
:10046300F0A3DFFA8032E309F608DFFA8078E309C4
:10047300F208DFFA807088828C83E309F0A3DFFA45
:10048300806489828A83E0A3F608DFFA8058898230
:100493008A83E0A3F208DFFA804C80D280FA80C618
:1004A30080D4806980F28033801080A680EA809AAD
:1004B30080A880DA80E280CA803389828A83ECFA5A
:1004C300E493A3C8C582C8CCC583CCF0A3C8C582B6
:1004D300C8CCC583CCDFE9DEE7800D89828A83E45B
:1004E30093A3F608DFF9ECFAA9F0EDFB2289828ADF
:1004F30083ECFAE0A3C8C582C8CCC583CCF0A3C8FB
:10050300C582C8CCC583CCDFEADEE880DB89828A7A
:1005130083E493A3F208DFF980CC88F0EF60010E47
:100523004E60C388F0ED2402B4040050B9F582EBA9
:100533002402B4040050AF232345822390049D7307
:10054300BB010689828A83E0225002E722BBFE02B6
:10055300E32289828A83E49322BB010CE58229F595
:1005630082E5833AF583E0225006E92582F8E62204
:10057300BBFE06E92582F8E222E58229F582E583BE
:100583003AF583E49322F8BB010DE58229F582E570
:10059300833AF583E8F0225006E92582C8F622BBA8
:1005A300FE05E92582C8F222BC000BBE0029EF8DAF
:1005B300F084FFADF022E4CCF875F008EF2FFFEEE6
:1005C30033FEEC33FCEE9DEC984005FCEE9DFE0FF4
:1005D300D5F0E9E4CEFD22EDF8F5F0EE8420D21C4F
:1005E300FEADF075F008EF2FFFED33FD4007985097
:1005F30006D5F0F222C398FD0FD5F0EA22C5F0F834
:10060300A3E028F0C5F0F8E582158270021583E0B7
:1006130038F022BB0110E58229F582E5833AF583A0
:10062300E0F5F0A3E0225009E92582F886F008E618
:1006330022BBFE0AE92582F8E2F5F008E222E5830F
:100643002AF583E993F5F0A3E99322F8BB0111E5B9
:100653008229F582E5833AF583E8F0E5F0A3F022F9
:100663005009E92582C8F608A6F022BBFE09E92550
:1006730082C8F2E5F008F222EF2BFFEE3AFEED39E5
:10068300FDEC38FC22C3EF9BFFEE9AFEED99FDECE7
:1006930098FC22EF4BFFEE4AFEED49FDEC48FC22AD
:1006A300C3E49FFFE49EFEE49DFDE49CFC22EB9FDC
:1006B300F5F0EA9E42F0E99D42F0EC6480C8648064
:1006C3009845F022EB9FF5F0EA9E42F0E99D42F057
:1006D300E89C45F022E8600FECC313FCED13FDEE3C
:1006E30013FEEF13FFD8F122E86010ECA2E713FC2E
:1006F300ED13FDEE13FEEF13FFD8F022E8600FEFCA
:10070300C333FFEE33FEED33FDEC33FCD8F122BBF4
:10071300010789828A830207865005E9F80208A93E
:10072300BBFE05E9F80208B589828A830208C1BBCA
:10073300010DE58229F582E5833AF58302078650A8
:1007430007E92582F80208A9BBFE07E92582F8021A
:1007530008B5E58229F582E5833AF5830208C1BB32
:10076300010DE58229F582E5833AF5830207CE5030
:1007730007E92582F80208FBBBFE07E92582F80298
:10078300090722E0FCA3E0FDA3E0FEA3E0FF22E0D3
:10079300F8A3E0F9A3E0FAA3E0FB22BB010DE58295
:1007A30029F582E5833AF5830207925007E925820A
:1007B300F80208D1BBFE07E92582F80208DEE582CC
:1007C30029F582E5833AF5830208EBECF0A3EDF01B
:1007D300A3EEF0A3EFF022A8828583F0D083D0822A
:1007E3001207F11207F11207F11207F1E473E49310
:1007F300A3C583C5F0C583C8C582C8F0A3C583C597
:10080300F0C583C8C582C822E0FBA3E0FAA3E0F9E0
:1008130022EBF0A3EAF0A3E9F022D083D082F8E43C
:10082300937012740193700DA3A393F8740193F55D
:10083300828883E4737402936860EFA3A3A380DFC9
:10084300D083D082E4937012740193700DA3A393A9
:10085300F8740193F5828883E4737402936C7012C5
:100863007403936D700C7404936E70067405936F28
:1008730060DDA3A3A3A3A3A380CAEF4E6012EF601E
:10088300010EEDBB010B89828A83F0A3DFFCDEFA44
:100893002289F05007F709DFFCA9F022BBFEFCF325
:1008A30009DFFCA9F022E6FC08E6FD08E6FE08E6FF
:1008B300FF22E2FC08E2FD08E2FE08E2FF22E493E5
:1008C300FC740193FD740293FE740393FF22E6FB11
:1008D30008E6F908E6FA08E6CBF822E2FB08E2F9B3
:1008E30008E2FA08E2CBF822E493F8740193F9746E
:1008F3000293FA740393FB22ECF608EDF608EEF686
:1009030008EFF622ECF208EDF208EEF208EFF2221D
:10091300E5B554C0FF9003347401F0EF24C07003B5
:100923000209DE24C07003020A8824806003020BDC
:100933003C900ECA122024900ECA12202C900ECA8C
:10094300121FDA603F1207DA00000000121FBEC058
:1009530000900EC9121FC4D000121FB5C000900E24
:10096300C8780D121FC6D000121FB5C000900EC765
:10097300121FCFD000121FB5C000900EC6121FF772
:10098300D00080161207DA00000000121FBE900E7E
:10099300C9121FA7900EC812200212200D900EC577
:1009A300E09003A7F0900EC4E09003A8F0900EC36C
:1009B300E09003A9F0900EC2E09003AAF0900EC15C
:1009C300E09003ABF0900EC0E09003ACF0900EBF4C
:1009D300E09003ADF0900EBE020B35900EBD1220D9
:1009E30024900EBD12202C900EBD121FDA603F1210
:1009F30007DA00000000121FBEC000900EBC121FD9
:100A0300C4D000121FB5C000900EBB780D121FD1C9
:100A1300D000121FB5C000900EBA121FCFD0001223
:100A23001FB5C000900EB9121FF7D0008016120731
:100A3300DA00000000121FBE900EBC121FA7900E1A
:100A4300BB12200212200D900EB8E09003A7F09085
:100A53000EB7E09003A8F0900EB6E09003A9F090D3
:100A63000EB5E09003AAF0900EB4E09003ABF090C3
:100A73000EB3E09003ACF0900EB2E09003ADF090B3
:100A83000EB1020B35900EB0122024900EB012203E
:100A93002C900EB0121FDA60451207DA0000000036
:100AA300121FBEC000900EAF121FC4D000121FB59C
:100AB300C000900EAEE0FFE4FCFDFE780D1206FFD1
:100AC300D000121FB5C000900EAD121FCFD0001280
:100AD3001FB5C000900EAC121FF7D000801612078E
:100AE300DA00000000121FBE900EAF121FA7900E77
:100AF300AE12200212200D900EABE09003A7F090EF
:100B03000EAAE09003A8F0900EA9E09003A9F0903C
:100B13000EA8E09003AAF0900EA7E09003ABF0902C
:100B23000EA6E09003ACF0900EA5E09003ADF0901C
:100B33000EA4E09003AEF08005E4900334F090033C
:100B430034E0B4011B9003A31207869003A2E09044
:100B53000339F07B017A0379A7A312081412272C17
:100B630022900161121B467B007AFE79FF784612C0
:100B730002677B007A7C7992784612015E90033F8C
:100B83001207CE9003431207DA00000000900347D8
:100B93001207DA00000000120CF8C3EF940CEE64A5
:100BA300809480500B9003297401F0C200020CAAB8
:100BB30090030B121BF19400EE6480948040089024
:100BC30001757401F08005E4900175F090032FE046
:100BD300FCA3E0FDC3EF9DFFEE9CFE120056C3EFA6
:100BE30094F4EE648094815042120CF8121BC47981
:100BF3007A7844120267C004C005C006C007900398
:100C03002B1207861203CC120056121BC479FA78F2
:100C1300C312006DD003D002D001D00012015EE4F4
:100C2300FBFA79FA784312006D800690032B1207C2
:100C3300869003431207CE900175E0700F90034333
:100C430012078612037D9003431207CE7B017A03BA
:100C5300790D90033F1207869003521207CE90033B
:100C6300431207861213729003471207CE7C401279
:100C73001B73601740159003471207DA40C000004A
:100C83009003111207927C40121B9A7CC0121B73B3
:100C930050159003471207DAC0C0000090031112E9
:100CA30007927CC0121B9A30002F7F0A7ED77DA348
:100CB3007C3D900347121BB8E4FBFA79907840120D
:100CC30002677B007AFE79FF784612015E1203CC3D
:100CD300904092EEF0A3EFF022904092E4F0A3F064
:100CE3009003251207DA000000009003211207DAAF
:100CF300000000002290032FE0FEA3E0FFC3900357
:100D03000CE09FFF90030BE09EFE120056229040E2
:100D130039E04440F0E51A64017003020DBDE51AA1
:100D23007003020DBDE538C4F8540FC868FFE537FA
:100D3300C454F048FE900161E0FCA3E0FD7B321255
:100D43002A14900161EEF0A3EFF09040AEE0FEA311
:100D5300E07802C333CE33CED8F9900183120E72FA
:100D6300900183EEF0A3EFF0900161E0FFA3E09028
:100D7300015FCFF0A3EFF0E51AB407379040D8A393
:100D8300E025E0FF0582D5820215831582E03390CA
:100D9300015BF0A3EFF090015BE0FEA3E0FFA3E0B3
:100DA300FCA3E0FD7B1E122A1490015DEEF0A3EF7D
:100DB300F08014E490021FF0800DE490015FF0A333
:100DC300F090015DF0A3F0900FF6E0FEA3E0900138
:100DD30057120E72900157EEF0A3EFF09040BAE075
:100DE300FEA3E0900165120E7E900165EEF0A3EF85
:100DF300F09040B8E0FEA3E0900167120E7E9001F0
:100E030067EEF0A3EFF0904048E090018DF0120BF5
:100E130064120006D390018AE09400900189E09463
:100E230000400774FFF5F0120600D3900237E094F8
:100E330000900236E064809480400774FFF5F0125E
:100E43000600E51AB40718C3900194E094E89001F2
:100E530093E0648094835016E475F001020600E485
:100E6300900193F0A3F0A31207DA0000000022FF21
:100E7300E0FCA3E0FD7B32122A1422FFE0FCA3E096
:100E8300FD7B32122A1422011900011600011700FA
:100E930001180041032A54410329014202ED0000D5
:100EA300C10042014700004201C700004803D100CE
:100EB300000000000000004103CF014203E10000F5
:100EC3004103E30042038800004C037C2AAA7FFF0E
:100ED3005555D5560000AAAB4C036E000000000028
:100EE300000000000000004C03C32AAA7FFF5554F2
:100EF300D5530000AAA94103C200603C0051000081
:100F030000000000000000000000000000000000DE
:100F130000000000000000000000000000000000CE
:100F230000000000000000000000000000000000BE
:100F330000000000000000000000605000000000FE
:100F4300000000000000000000000000000000009E
:100F5300000000000000000000000000000000008E
:100F6300000000000000000000000000000000007E
:100F7300000000000000000000000000000000006E
:100F8300000000000000000000000000000041001D
:100F9300A600410095004100A7004100A8004400BD
:100FA300910000000044009E000000004400A200E5
:100FB30000000044008D0000000044009600000083
:100FC3000044009A00000000410050004903B900AA
:100FD30000000000000000004103B6004103B3001D
:100FE3004203B700004203B400004202EB000000DA
:100FF300E51A6409600302112F90015712271B940D
:10100300F2EE942D4036EF94A3EE9441502EE51B5F
:1010130064046005E51BB40323C3900290E0946469
:1010230090028FE0940050051226D3800FE49002C3
:101033008FF0A3F0F51B90028EE004F0E51B64072C
:101043007042D390015AE09450900159E064809427
:101053008050319002911226D3C3900292E09430D3
:10106300900291E094754010900160E094AE90017D
:101073005FE064809480500CE4900291F0A3F02030
:101083000002F51BE51B6405702EC390029BE094E0
:10109300DC90029AE0940550051226D3801A900240
:1010A3009CE004F0E0C394064002E4F0E490029A6A
:1010B300F0A3F0200002F51BE51B64067031C3901A
:1010C300029EE094F490029DE0940150051226D311
:1010D300801D90029FE004F0E0D394035003E4F5F5
:1010E3001BE490029DF0A3F0200004A3F0F51BE5A0
:1010F3001B64026006E51B64017031C3900297E034
:1011030094F4900296E094015007E475F00102060E
:1011130000900295E004F0E0C394034002E4F02061
:101123000003E4F51BE4900296F0A3F022E51A1203
:10113300081D115100117701119E0211D70611E804
:101143000711FA0812200912030A0000124D1200B7
:101153002EE51B600302120790039EE06401600307
:10116300021250200003021250751A01F090039CE2
:10117300F0A3F022E51B6003021207200002802483
:1011830090039EE064016003021250122C0D900143
:1011930089E4F0A3741EF0751A0222E51B60028035
:1011A30063200004751A0822121A6A900189E070FC
:1011B30002A3E06003021250C2FF90405CC083C0F0
:1011C30082E0FFA3E054C0D082D083CFF0A3EFF03E
:1011D300751A0622900189E07002A3E0706F12274E
:1011E30080751A0722E51B6002801920005F751ABB
:1011F30008E4900230F022E51B600280070217BD6D
:10120300E51B6004751A0922900189E07002A3E0CE
:10121300703BC2FF904062E054DFF0802DE51B700D
:1012230007F51A900231F022904062E054DFF0C2D9
:10123300FF900231E070169001F8E0600690021909
:101243007401F09002317401F022E4F51A22781E41
:10125300A60608A6078C2F8D30E4F52EE52C700327
:1012630002131F854145854246D3900194E0942C97
:10127300900193E064809481404790019512078622
:10128300EF2401FFE43EFEE43DFDE43CFC900195C8
:101293001207CE7F407E1F12291E500EE54224C640
:1012A300F546E5413411F545801D7F287E2312293B
:1012B3001E5014E542243AF546E54134EEF54580E7
:1012C30006854145854246C3E5309546FFE52F95A2
:1012D30045FE781CF608EFF6D394B6EE648094804E
:1012E300400A744A2530F53074FF8015C3781DE633
:1012F300944A18E66480947F500D74B62530F53017
:10130300E4352FF52F800685452F854630852F310F
:10131300853032E4F539F53A752E032290019512A2
:1013230007DA00000000E4900193F0A3F0C3E53076
:101333009546781DF6E52F954518F6E52AB4010D77
:10134300D308E6940018E664809480500FE52AB42D
:10135300021CC3781CE66480948050128545318555
:101363004632E4F539F53A752E03F539F53A22900C
:10137300034B120814900352120792120069900350
:1013830056121B3A900018120732900356121BA8EC
:10139300E4FBFAF97840120267121B3D9000141225
:1013A300079E12006D90035A121B3A900018120701
:1013B3009E90035612078612006990035E121B3A31
:1013C300121BAE121B7B600B4009121B3D121BAE9E
:1013D3001207CE121B3D121B8190035A121B7B5026
:1013E3000C121B3D121B8190035A1207CE121B3D98
:1013F300120712900356121BB8900362121B3A9005
:101403000004121BB1121BB8900366121B3A900022
:101413000812073290035E121BB890036A121B3A3C
:1014230090000C120732900366121B7B600D400B79
:10143300121B3D90000C120732801A121B3D9000C4
:101443000C121B84900366121B7B500F121B3D90E2
:10145300000C121B849003661207CE90035A1207E6
:1014630086121B3D900014120762900356120786E2
:1014730090001812076290036612078690036212A7
:101483001BA890036A12079202006DA282E433FF45
:10149300A2B7E433FDA2B6E433FB122A7140030280
:1014A30015A4122AAA9040CCE0F50EA3E0F50FFD97
:1014B300AC0EAF0DAE0C1215A5900331E9F0E52B80
:1014C3006015E50D450C600C904084E4F0A3F01228
:1014D3002AAA80EEE4F52B900331E0FF2404F8E61A
:1014E300FC08E64C6006121E7A121D46E52E30E01B
:1014F3000CE51A64056003122AB5532EFEE52E305F
:10150300E10CE51A64056003122AC0532EFDE52899
:10151300B4010D900278122A9EB401028023802721
:10152300E528B4020D90027E122A9EB401028011B6
:101533008015E528B40417E4900284122A9FB401AD
:1015430006E475F001800474FFF5F01206009001C3
:10155300F6E0B4010A90021AE475F0011206009055
:101563000175E0FFB4011B9001FDE0FCA3E0FDC3A6
:1015730090021DE09D90021CE09C501FE475F00159
:101583008016EF7016D390021DE0940390021CE0C6
:101593009400400774FFF5F01206009003C2E5279C
:1015A300F022E4F52EF551F552F52B8C2F8D308575
:1015B3004F4D85504E8E4F8F50752B0185272585B6
:1015C3002627E5256527F528121C02E52A64016014
:1015D30006E52A64027079AE61AF62E4FCFD7B60CC
:1015E3007AEAF9F8D31206B140080562E56270029F
:1015F3000561E52C6012C3E5629405E56194004042
:1016030007E4F52CF549F54AE52D6401602EE52C38
:10161300702AC3E5629414E5619400401FD3E53852
:10162300943CE53764809480500DC3E53894C4E559
:10163300376480947F5005752D018024E52D60204B
:10164300D3E562940AE56194005015E4F52D80100A
:10165300E4F561F562752C01F533F534F537F538AA
:10166300122C76E52C70341223CBE52AB4010FC378
:10167300E5449530F54CE543952FF54B8012E52A6B
:10168300B4020DC3E5309544F54CE52F9543F54B76
:10169300E4F549F54A854F5185505285676F856852
:1016A30070854B71854C728551738552747B007ABA
:1016B30000796F22E49003AFF090039FF09003B0A2
:1016C300F043FC80904053E0547FF0C287E4F5B7C9
:1016D300F5C2F5C3900340F0A37403F0E4A3F079DB
:1016E30003900340E0FDA3E0FFA3E0C454F04403F0
:1016F300FCAE058EB78FC2F5C3E490033FF043B150
:10170300089003451207DA1FFFFFFF90034374019C
:10171300F0A3F0A312078678151206D88FC41220FF
:101723003478121206D8EF54E0FFE4FEFDFCA8045F
:10173300A905AA06AB0790034375F008122016A863
:1017430004A905AA06AB07A375F010122016C0045E
:10175300C005C006C007A3120786780F1206D8EF8C
:101763005407FFE4FEFDFCD003D002D001D00012E9
:1017730006968FC512203478071206D88FC612201A
:101783003478011206FF8FC775CAFF75CBFF75CC7E
:10179300FF75CDFF53B1DF53B1EF53B1FB53B1FD30
:1017A30075B4FF43B140438C02438C01E4F5DEF58D
:1017B300DF90039F04F043B18022900230E0FF707A
:1017C3003904F0900175E0900FA8740FF0A374FF33
:1017D300F0900FAE7406F0A37466F09001E0E0FEA3
:1017E30064016004EEB4020B9001897403F0A374E6
:1017F300E8F02212249874C8F022EF64017071900B
:101803000189E07002A3E060549001F8E0FF6031C9
:101813009001FAE02430FD9001F9E03400FC9002DD
:101823001CE0FAA3E0FBC39DEA9C40319001FCE07D
:1018330024D0FD9001FBE034FFFCD3EB9DEA9C50E8
:101843001CEF60659001E0E06402705DC3900206E6
:10185300E09430900205E064809480504CC2FF9085
:1018630040A0E4F01224A774021224947414F0220A
:10187300900230E0FFB4021AE490029FF074031266
:1018830024947414F09001F8E0601E90021974011E
:10189300F022EFB40313900189E07002A3E0700912
:1018A300300006E51B7002F51A2290405C740AF0C2
:1018B300A374BFF0904062E0547FF0E054DFF0E0A7
:1018C3004420F090409FE054DFF0E04410F0E04407
:1018D30008F09040D874FFF09040A0E4F0A3F0909B
:1018E30040901224519040CCF0A3F09040AAF0A372
:1018F300F09040A8F0A3F09040ACF09040AEF0A37D
:10190300F09040ADF09040B07473F0A37432F0A344
:10191300748CF0A374CEF0A3747EF0A374B7F0A319
:101923007481F0A37449F09040C07480F09040A398
:101933007449F09040A0E04401F0904062E04440DC
:10194300F09040A0E054F3F09040A2749BF09040DC
:10195300A5740CF09040A1E054DFF090039EE0B436
:1019630001169040A1E054F3F0900396E0FFA3E04A
:101973009040A6CFF0A3EFF0904062E04480F0E007
:101983004408F09040A0E054BFF0E054DFF0E0548E
:10199300EFF02290033F120814E4FFFEE5B37D004D
:1019A30030E2027D01ED7010C3EF94C0EE945D5000
:1019B300070FBF00010E80E490034212080B1205CB
:1019C30043900ED7F090000130E72A1207327815C2
:1019D300121FE9780D1206D8900ED5121FEF780565
:1019E3001206D8900ED4121FEF78041206FF900E41
:1019F300D3EFF0801B1207327803121FE978051228
:101A030006FF900ED5EFF0900ED4E4F0900ED3F0D5
:101A130090033F12080B120543900ED2F090000181
:101A230012055C900ED1F090000212055C900ED06E
:101A3300F090000312055C900ECFF09000041205A5
:101A43005C900ECEF090000512055C900ECDF090E8
:101A5300000612055C900ECCF090000712055C9016
:101A63000ECBF043B201229003E4E020E148E044CE
:101A730002F0904062E04480F090405EE0FCA3E01E
:101A8300FDE41203937BCD7ACC79CC783D12015ED1
:101A93001203CC904058EEF0A3EFF090405CC0836B
:101AA300C082D082D083E4F0A3F0904062E054F788
:101AB300F0E490016BF0C390018AE0941E1224AF0E
:101AC300501C90016BE0701604F090405CC083C022
:101AD30082E0FFA3E04401D082D08312249FD390FD
:101AE300018AE094141224AF502090016BE0B401FA
:101AF300197402F090405CC083C082E0FFA3E0440D
:101B030004D082D083CFF0A3EFF0D390018AE09486
:101B13000A1224AF502090016BE0B402197403F051
:101B230090405CC083C082E0FFA3E04410D082D029
:101B330083CFF0A3EFF0221207CE90034B02080BE2
:101B4300900149E0FCA3E0FDEC0203931203937BB5
:101B53008B7A2979E6783E12015EE4FBFA792E78D6
:101B63004312006D1203CC90017AEEF0A3EFF02242
:101B7300E4FFFE7DC0900347120792020304900026
:101B83001012073202037D90019FE475F0011206E3
:101B930000D39001A0E022E4FFFE7DC01202679013
:101BA30003210207CE12079202006D900010120764
:101BB3003290035A2212079202015E90014B0207F0
:101BC30086AC06AD07EC120393E4FBFA2290017A8C
:101BD3007428F0A374F5F022E0FFA3E0A3CFF0A3F1
:101BE300EFF022904074F0A3F0A3F0A3F022E0FE04
:101BF300A3E0FFD32290017AE4F0A374AEF022E5D0
:101C0300502554F554E54F3553F553E5502558F514
:101C130058E54F3557F557E550255CF55CE54F35ED
:101C23005BF55BE52830E0138553558554568555A0
:101C33005F855660E4F553F554802EE52830E113B3
:101C430085575985585A85595F855A60E4F557F584
:101C5300588016E52830E211855B5D855C5E855D05
:101C63005F855E60E4F55BF55C7BFF7A2C79938599
:101C73002A297E0074FF252512292BB5270DE52976
:101C8300B40204752A0322752A01227E0074FF25FB
:101C93002712292BB5250DE529B40104752A042241
:101CA300752A0222E4F52A22E4FFFE90033EF00F98
:101CB300BF00010EBE3AF8BF98F512252A12297902
:101CC300900343E4F0A37409F0A37475F0A3743094
:101CD300F0A282E433A3F0A2B7E433A3F0A2B6E404
:101CE30033A3F0E4FBFA7D04FF12285390402774DA
:101CF300B3F075C980900F01E493700590033E041F
:101D0300F090039EE070051221518003121130E51B
:101D1300196009122B4B120D11E4F519E516700920
:101D230012267112235075160AE51770061220CC7D
:101D3300751732E51870CA904026E04401F0751813
:101D43006480BEE52AB401068E338F34800EE52A03
:101D5300B40209C3E49FF534E49EF533E52D606DC9
:101D6300C3E5349538F57CE5339537F57BD3E560EA
:101D730094F4E55F94014005122935803ED3E56074
:101D830094C8E55F9400401AE57CAE7B7802CEA24E
:101D9300E713CE13D8F8FDAC061229352DFFEE3C20
:101DA300801ED3E5609464E55F94004026E57CAE35
:101DB3007B7802CEA2E713CE13D8F825E0FFEE33EB
:101DC300FEEF2538F538EE3537F53780068533379E
:101DD30085343885373985383A432E022278FFE433
:101DE300F6D8FD9000007F007E10E4F0A3DFFCDE58
:101DF300FA758181021E35021CABE493A3F8E493C8
:101E0300A34003F68001F208DFF48029E493A3F8EA
:101E13005407240CC8C333C4540F4420C88340045C
:101E2300F456800146F6DFE4800B0102040810201B
:101E33004080900E8AE47E019360BCA3FF543F3040
:101E4300E509541FFEE493A360010ECF54C025E0BF
:101E530060A840B8E493A3FAE493A3F8E493A3C877
:101E6300C582C8CAC583CAF0A3C8C582C8CAC58308
:101E7300CADFE9DEE780BEA807E6F51008E6F5113C
:101E8300EF2402F8E6F51208E6F513EF2404F8E66A
:101E9300F51408E6F515900F98E567F0E568122B41
:101EA300E8500AA3E54BF0A3E54CF08010E54C2481
:101EB30055FEE54B3455900F9AF0A3CEF075C11241
:101EC300E5C120E7FB900F9CE0FFA3E0900F80CFDC
:101ED300F0A3EFF0900F9EE0FFA3E0900F82CFF00E
:101EE300EF122BE8500AA3E551F0A3E552F0800A64
:101EF300900F84E55FF0A3E560F075C113E5C120A1
:101F0300E7FB900F88E0F565A3E0F566AE65FF2279
:101F1300E490023E12244112244412248190026A66
:101F23007436F0A3749CF0A37401F0A3745DF0E421
:101F3300900270F0A3F090025E122441900270F0C0
:101F4300A3F0A3F09003E4F090016DF090016BF027
:101F5300900177F0752C01F529F52AF561F562F505
:101F630063F564F533F534F537F538F539F53AF5B6
:101F730035F536F52DF54DF54EF54FF550F551F593
:101F830052F527F52790015FF0A3F090021AF0A312
:101F9300F090021EF0900193F0A3F0A31207DA0071
:101FA30000000022E075F008A4FFAEF0EE3395E0E8
:101FB300FDFC1206969003A31207CE9003A302071B
:101FC300927815E0FFE4FCFDFE0206FF7805E0FFD2
:101FD300E4FCFDFE0206FFE0540F9003A2F0900321
:101FE300A0E09003A3221206D8900ED6EFF0900043
:101FF30001020732E0FFE4FCFDFE78040206D8E0AC
:10200300C4135407FFE4FCFDFE221206969003A3BB
:102013000207CEE0A4FFAEF0EE3395E0FDFC02062E
:1020230096E054809003A0F022E054409003A1F086
:1020330022900345020786904068E054FDF09040EB
:102043006BE0548F4470F0904086749CF0A374400E
:10205300F0904082E4F0A3F090406BE054F7F0E09E
:1020630054FBF053E2F7E054FC4403F0904080C08B
:1020730083C082E04470FFA3E0D082D083CFF0A37B
:10208300EFF090406C7407F090406AE04480F09069
:10209300406EE0E4F090406DE054DFF0E054F7F080
:1020A300E054FBF0E04402F0E04410F0E58B54F31D
:1020B300440CF58B904068E04402F0538BF7438B5C
:1020C3000490406EE054E0F0229002A0E06009E446
:1020D300122BAE7414F0801ED39002A3E0940090F0
:1020E30002A2E09400400974FFF5F0120600800696
:1020F3009002A17401F09002A4E06009E4122BAEF7
:102103007414F0801ED39002A7E094009002A6E01E
:102113009400400974FFF5F012060080069002A5B2
:102123007401F09002A8E06008E4122BAE7414F07E
:1021330022D39002ABE094009002AAE094004007FF
:1021430074FFF5F00206009002A97401F02290409A
:1021530039E04440F0904039E020E6F990039812CA
:102163000792900FE0E0547FFEA3E054F8FFE4FCF5
:10217300FD12067B9003981207CE900398120786F0
:1021830078041206EB900396EEF0A3EFF0A3120788
:1021930086C006C007900396E0FEA3E0FBAA06EA0A
:1021A3003395E0F9F8D007D006120688A31207CEBC
:1021B30090039CE475F001120600D390039DE09414
:1021C300E890039CE064809483400690039E74012E
:1021D300F022C0E0C0F0C083C082C0D075D000C080
:1021E30000C001C002C003C004C005C006C0079000
:1021F3004061E030E504E054DFF0904061E030E41A
:102203003712293FE527C454F09003D1F0A3E4F03B
:10221300A3E541F0A3E542F09040CCE0FFA3E090BA
:1022230003D5CFF0A3EFF0A37403F0A374E8F09009
:102233004061E0448054EFF0D007D006D005D004CD
:10224300D003D002D001D000D0D0D082D083D0F040
:10225300D0E032C0E0C0F0C083C082C0D075D000EF
:10226300C000C001C002C003C004C005C006C0074F
:102273009003D0E004F0E5B630E00612091343B250
:1022830004E5B630E10353B6FDE5B630E30353B6D8
:10229300F7E5B630E20353B6FBE5B630E419E5DF04
:1022A300D39480400F9003D9E5CFF0A3E5DFF07F0F
:1022B30001122C8D53B6EFD007D006D005D004D031
:1022C30003D002D001D000D0D0D082D083D0F0D0C0
:1022D300E032C0E0C0F0C083C082C0D075D000C07F
:1022E30000C001C002C003C004C005C006C00790FF
:1022F300406EE030E40A122C2590406EE054EFF07B
:1023030090406EE030E304E054F7F090406EE0302C
:10231300E204E054FBF090406EE030E10A12148EC8
:1023230090406EE054FDF090406EE030E004E054E5
:10233300FEF0D007D006D005D004D003D002D001E0
:10234300D000D0D0D082D083D0F0D0E03290039FA1
:10235300E014601114603214604024037069900328
:102363009F7401F022E5CF7F0030E2027F01EF602E
:1023730002800F9003AFE060028007E5DEC3948024
:10238300404590039F7402F02253B17FE49003B160
:10239300F0A3F090039F7403F022C39003B2E09480
:1023A3000A9003B1E094005007E475F001020600BF
:1023B300E49003B1F0A3F0F5DEF5DF9003AFF04353
:1023C300B18090039F04F022E52AB40136E542244C
:1023D300ABF540E54134EAF53FE54024AAF544E591
:1023E3003F342AF543E52D700DE54024AAF546E573
:1023F3003F342AF54522E540241BF546E53F3447A3
:10240300F54522E52AB40235E5422455F540E54178
:102413003415F53FE5402456F544E53F34D5F543FF
:10242300E52D700DE5402456F546E53F34D5F545D9
:1024330022E54024E5F546E53F34B8F54522F0A30F
:10244300F0A3F0A3F0A3F0A3F0A3F0A3F0A3F0A3F1
:10245300F0A3F0A3F022F0904070740FF0A374FF88
:10246300F090407C7401F0A37447F0904094740F93
:10247300F0A374FFF0A37401F0A37447F022900259
:10248300567446F0A37403F0A37429F0A37492F076
:1024930022900230F0900189E4F0A322CFF0A3EF61
:1024A300F0D2FF22904062E054DFF022900189E0F5
:1024B30094002290405E7409F0A37460F0A3741535
:1024C300F0904058E4F0A3F090405C740AF0A374D9
:1024D300BFF0E4F5F853F9FD53F9FE904061E05481
:1024E300F7F0E054EFF0E04402F0E054FEF09040E7
:1024F3005A7401F0A3742CF0438A80538ABF90402E
:1025030061E054FBF0A3E054DFF0E04404F0E04466
:1025130080F0E054EFF0E04401F090401DE04410FF
:10252300F0A3E054EFF0227F4C7A0179F2122C539E
:102533007F087A0179C9122C539000AF7470F0A30D
:10254300E4F09000AFE0FEA3E0F5828E83E493FF16
:102553007401939000ABCFF0A3EFF01228CBE4F516
:102563001AF51B90030D1207DA3A83126F900311C9
:102573001207DA3727C5AC9003151207DA000000FB
:10258300009003191207DA40C0000090031D1207E0
:10259300DA49127C0022C0E0C083C082E59D30E7A7
:1025A30003539D7FE59D30E6239001C6E0701A90AA
:1025B30001BAE5A5F0A3E5A4F09001BEE5A7F0A359
:1025C300E5A6F09001C67401F0539DBFE59D30E58B
:1025D3002D9001C6E07024E5909001BA30E10874B3
:1025E3000FF0A374A08003E4F0A3F09001BE740F76
:1025F300F0A374A0F09001C67401F0539DDFD08264
:10260300D083D0E032A907E4FFE522600BED24FF7D
:102613007E0040027E01AD06E52424FE60171460AF
:102623001B1460251460291460332405703FED25C5
:10263300E0FFEB800CE925E0FFEB8019EB25E0FFE1
:10264300ED25E025E04F49FF22E925E0FFED801667
:10265300EB25E0FFE925E025E04F4DFF22AF05EF35
:1026630025E0FFAE01EE25E025E04F4BFF22C390AE
:1026730002ECE0940A9002EBE094005009E475F058
:10268300011206008007E49002EBF0A3F09002EB46
:10269300E0FEA3E0FFEE7037EF24FE601524FE603A
:1026A3001E2404702A7A0279AC122BB57A0279D3EC
:1026B300801A7A0279B1122BB57A0279DB800D7B0D
:1026C300017A0279B6122BB77A0279E312199622AC
:1026D300E475F001020600900173E090017225E0B9
:1026E300FFE033FE2233FED3ED9FEE6480F8EC640B
:1026F300809822FFE0FCA3E0FDD322E475F0020200
:10270300060090027FE09F90027EE09E2290028569
:10271300E09F900284E09E22E0FEA3E0FFD3229F8D
:10272300EE6480F8EA64809822120843274500008B
:1027330000BD2760000000BE276F000000BF00003F
:10274300277F78BB7C02122B9C12051D9002A0747C
:1027530001F078D37C02FD122B9E02051D78C37C09
:1027630002122B9C12051D9002A4800D78CB7C02D3
:10277300122B9C12051D9002A87401F0221218ADB1
:102783009040CCE541F0A3E542F09040A8E4F0A3EB
:10279300F0904090F0A3F090017EF0A312245990A2
:1027A300017EE0FFA3E0904092CFF0A3EFF09040D2
:1027B3005CC083C082E0FFA3E0443FD082D0831299
:1027C300249FD2AF22E49002EBF0A3F09002AD126B
:1027D30007DA000000E19002AC7408F09002B21234
:1027E30007DA000000E29002B17408F09002B71219
:1027F30007DA000000E39002B67408F0E49002A048
:10280300122BAE122BA9122BA9743CF022E523C381
:102813009412503AE52375F0038404F524E52375F7
:10282300F00384E5F014600A04700FE4F53BF53C13
:10283300800E753B15753C558006753B2A753CAA81
:10284300E53E253CF53CE53D353BF53BD322C32234
:102853008F22AF058F238A3D8B3E900343E0F567BC
:10286300A3E0F568A3E0FEA3E0FF8E69F56A7C00B0
:102873007D031205AB8E6B8F6C122810900347E01B
:10288300FFA3E0FDA3E0FB12000ED322904051E032
:102893004440F0E04480F0A3E04410F0904036C0A0
:1028A30083C082E04488FFA3E04490D082D083CFEA
:1028B300F0A3EFF0904039E04420F0E04404F0E06E
:1028C30054FDF0E04480F022E49003E4F090038CA4
:1028D3001207DA00003FFF9003921207DA00003F6D
:1028E300FF9003981207DA00003FFF74FF9001BEC8
:1028F300F0A3F0122481E49001E1F09001D674FF7B
:10290300F02225E0247AF582E43403F583E0FEA384
:10291300E0253CF542E53B3EF54122E4FDFC900118
:1029230095120792C30206C7F582EE34FFF58302C0
:10293300055CE57BA2E713FEE57C1322904084E06F
:10294300F508A3E0F5099040CCE0F50AA3E0F50B08
:102953009040CCE0FCA3E0FDAF09AE08121251E5B4
:102963002E30E006122AB5532EFEE52E30E1061274
:102973002AC0532EFD22122B221229AE904050E082
:102983004408F0122BF412288F122ACB1216B71216
:1029930027C8122C6612203A1224B6538C7F438C1C
:1029A30040904061E04440F0D2AF22904051E04477
:1029B30080F053D6BF53D6DF904035E04480F0E03B
:1029C30054BFF090404B7406F043D60853D9FB53E1
:1029D300D9EF43D90843D90243D90143D61022C0C2
:1029E300E0C083C082904061E030E71E751901E5C5
:1029F3001660021516E51760021517E51860021533
:102A030018904061E04410547FF0D082D083D0E02E
:102A13003290033FEEF0A3EFF0AF03EF900FD0F04F
:102A2300A3E4F090033FE0FFA3E0900FD2122BDA70
:102A330075C10EE5C120E7FB900FD4E0FEA3E0FFD4
:102A43002290033FEEF0A3EFF0AE04AF05E41203D0
:102A53009390032B1207CE90033FE0FFA3E0900374
:102A63000BCFF0A3EFF0E4122C5CF0D20022900322
:102A730032EFF0AC03AA05A37402F0D201122608C8
:102A83008F26900332E0FFAE02AD06122608EF65F3
:102A9300266005C201E4A3F0A20122E4F0A3F090B2
:102AA3000175E090032F22904084E0F50CA3E0F53C
:102AB3000D229040CCE531F0A3E532F0229040A8FE
:102AC300E539F0A3E53AF022904052E04402F0E009
:102AD3004401F0904051E04480F090404EE054EFC8
:102AE300F0E04401F0904034E04404F0E054FDF0A1
:102AF300E054FEF022900FA8E4F0A3F0900FAEF0A4
:102B0300A3F0900FAA122C80F0900FB0122C80F03B
:102B1300A3F0A37406F0A374FFF0A374FAF0229059
:102B2300404FE0547FF0E054BFF0E04404F0E04451
:102B330002F0904052E04420F043FF20E04404F0D0
:102B430090404FE04411F0229002EDE475F0011241
:102B53000600D39002EEE094889002EDE0941340D7
:102B63000FE4F0A3F07D707C177FB87E0B122A442C
:102B730022C0E0E5DB30E00EE5DB30E106751B0447
:102B830053DBFD53DBFE308D0DE5DB30E206751BB9
:102B93000953DBFBC28DD0E0327D0190033A12086A
:102BA3000B7E007F0822743CF0E4A3F0A3F0A3F0B3
:102BB300A3227B01900342020814C0E0E5A930E69A
:102BC3000353A9BFE5A930E50353A9DFE5A930E71E
:102BD3000353A97FD0E032CFF0A3EFF0AF05A3EC0E
:102BE300F0A3EFF022A3F0D3E5629432E561940001
:102BF3002243FD04904054E04404F0D29243FC800D
:102C0300904053E04480F0D28722121F13122AF817
:102C1300A282E433FFA2B7E433FDA2B6E433FB029E
:102C2300000EE52C7013752C01F529F52AF561F5D5
:102C330062F533F534F537F53822C0E0E5D730E7F0
:102C43000CE51A64046003751B0153D77FD0E0328F
:102C53007E007D007B0102087D90032FF0A3F0909E
:102C630003292253D77F53D57F43D540438D025346
:102C73008DFE22900175E0E52712290522F0A3F0CD
:102C8300A3F0A322308A02C28A329003AFEFF0226C
:102C930003060205010408030807080108050806DE
:0C2CA300020808070308080805070406DB
:00000001FF
